{
	"data": {
		"bytecode": {
			"linkReferences": {},
			"object": "608060405234801561001057600080fd5b5060f58061001f6000396000f300608060405260043610603f576000357c0100000000000000000000000000000000000000000000000000000000900463ffffffff168063e5c7c676146044575b600080fd5b348015604f57600080fd5b5060806004803603810190808035906020019092919080359060200190929190803590602001909291905050506096565b6040518082815260200191505060405180910390f35b600082841160af5781831160a9578160ab565b825b60bd565b81841160ba578160bc565b835b5b905080905093925050505600a165627a7a72305820b5276bd1515a0984730ff0b0b083d1514164d8c7049da6fef7374b8ced790d5e0029",
			"opcodes": "PUSH1 0x80 PUSH1 0x40 MSTORE CALLVALUE DUP1 ISZERO PUSH2 0x10 JUMPI PUSH1 0x0 DUP1 REVERT JUMPDEST POP PUSH1 0xF5 DUP1 PUSH2 0x1F PUSH1 0x0 CODECOPY PUSH1 0x0 RETURN STOP PUSH1 0x80 PUSH1 0x40 MSTORE PUSH1 0x4 CALLDATASIZE LT PUSH1 0x3F JUMPI PUSH1 0x0 CALLDATALOAD PUSH29 0x100000000000000000000000000000000000000000000000000000000 SWAP1 DIV PUSH4 0xFFFFFFFF AND DUP1 PUSH4 0xE5C7C676 EQ PUSH1 0x44 JUMPI JUMPDEST PUSH1 0x0 DUP1 REVERT JUMPDEST CALLVALUE DUP1 ISZERO PUSH1 0x4F JUMPI PUSH1 0x0 DUP1 REVERT JUMPDEST POP PUSH1 0x80 PUSH1 0x4 DUP1 CALLDATASIZE SUB DUP2 ADD SWAP1 DUP1 DUP1 CALLDATALOAD SWAP1 PUSH1 0x20 ADD SWAP1 SWAP3 SWAP2 SWAP1 DUP1 CALLDATALOAD SWAP1 PUSH1 0x20 ADD SWAP1 SWAP3 SWAP2 SWAP1 DUP1 CALLDATALOAD SWAP1 PUSH1 0x20 ADD SWAP1 SWAP3 SWAP2 SWAP1 POP POP POP PUSH1 0x96 JUMP JUMPDEST PUSH1 0x40 MLOAD DUP1 DUP3 DUP2 MSTORE PUSH1 0x20 ADD SWAP2 POP POP PUSH1 0x40 MLOAD DUP1 SWAP2 SUB SWAP1 RETURN JUMPDEST PUSH1 0x0 DUP3 DUP5 GT PUSH1 0xAF JUMPI DUP2 DUP4 GT PUSH1 0xA9 JUMPI DUP2 PUSH1 0xAB JUMP JUMPDEST DUP3 JUMPDEST PUSH1 0xBD JUMP JUMPDEST DUP2 DUP5 GT PUSH1 0xBA JUMPI DUP2 PUSH1 0xBC JUMP JUMPDEST DUP4 JUMPDEST JUMPDEST SWAP1 POP DUP1 SWAP1 POP SWAP4 SWAP3 POP POP POP JUMP STOP LOG1 PUSH6 0x627A7A723058 KECCAK256 0xb5 0x27 PUSH12 0xD1515A0984730FF0B0B083D1 MLOAD COINBASE PUSH5 0xD8C7049DA6 INVALID 0xf7 CALLDATACOPY 0x4b DUP13 0xed PUSH26 0xD5E002900000000000000000000000000000000000000000000 "
		},
		"gasEstimates": {
			"creation": {
				"codeDepositCost": "49000",
				"executionCost": "99",
				"totalCost": "49099"
			},
			"external": {
				"largestof3(uint256,uint256,uint256)": "397"
			}
		},
		"methodIdentifiers": {
			"largestof3(uint256,uint256,uint256)": "e5c7c676"
		}
	},
	"abi": [
		{
			"constant": true,
			"inputs": [
				{
					"name": "a",
					"type": "uint256"
				},
				{
					"name": "b",
					"type": "uint256"
				},
				{
					"name": "c",
					"type": "uint256"
				}
			],
			"name": "largestof3",
			"outputs": [
				{
					"name": "o_big",
					"type": "uint256"
				}
			],
			"payable": false,
			"stateMutability": "view",
			"type": "function"
		}
	]
}