{
	"data": {
		"bytecode": {
			"linkReferences": {},
			"object": "608060405234801561001057600080fd5b5061010f806100206000396000f300608060405260043610603f576000357c0100000000000000000000000000000000000000000000000000000000900463ffffffff1680636cbb5ae3146044575b600080fd5b348015604f57600080fd5b506076600480360381019080803590602001909291908035906020019092919050505060a8565b604051808681526020018581526020018481526020018381526020018281526020019550505050505060405180910390f35b6000806000806000858701945085870393508587029250858781151560c957fe5b049150858781151560d657fe5b06905092955092959093505600a165627a7a723058200905b6a433c9e187d5f663b6297953e59cfcccf9672f9ce91e54281c2f84429e0029",
			"opcodes": "PUSH1 0x80 PUSH1 0x40 MSTORE CALLVALUE DUP1 ISZERO PUSH2 0x10 JUMPI PUSH1 0x0 DUP1 REVERT JUMPDEST POP PUSH2 0x10F DUP1 PUSH2 0x20 PUSH1 0x0 CODECOPY PUSH1 0x0 RETURN STOP PUSH1 0x80 PUSH1 0x40 MSTORE PUSH1 0x4 CALLDATASIZE LT PUSH1 0x3F JUMPI PUSH1 0x0 CALLDATALOAD PUSH29 0x100000000000000000000000000000000000000000000000000000000 SWAP1 DIV PUSH4 0xFFFFFFFF AND DUP1 PUSH4 0x6CBB5AE3 EQ PUSH1 0x44 JUMPI JUMPDEST PUSH1 0x0 DUP1 REVERT JUMPDEST CALLVALUE DUP1 ISZERO PUSH1 0x4F JUMPI PUSH1 0x0 DUP1 REVERT JUMPDEST POP PUSH1 0x76 PUSH1 0x4 DUP1 CALLDATASIZE SUB DUP2 ADD SWAP1 DUP1 DUP1 CALLDATALOAD SWAP1 PUSH1 0x20 ADD SWAP1 SWAP3 SWAP2 SWAP1 DUP1 CALLDATALOAD SWAP1 PUSH1 0x20 ADD SWAP1 SWAP3 SWAP2 SWAP1 POP POP POP PUSH1 0xA8 JUMP JUMPDEST PUSH1 0x40 MLOAD DUP1 DUP7 DUP2 MSTORE PUSH1 0x20 ADD DUP6 DUP2 MSTORE PUSH1 0x20 ADD DUP5 DUP2 MSTORE PUSH1 0x20 ADD DUP4 DUP2 MSTORE PUSH1 0x20 ADD DUP3 DUP2 MSTORE PUSH1 0x20 ADD SWAP6 POP POP POP POP POP POP PUSH1 0x40 MLOAD DUP1 SWAP2 SUB SWAP1 RETURN JUMPDEST PUSH1 0x0 DUP1 PUSH1 0x0 DUP1 PUSH1 0x0 DUP6 DUP8 ADD SWAP5 POP DUP6 DUP8 SUB SWAP4 POP DUP6 DUP8 MUL SWAP3 POP DUP6 DUP8 DUP2 ISZERO ISZERO PUSH1 0xC9 JUMPI INVALID JUMPDEST DIV SWAP2 POP DUP6 DUP8 DUP2 ISZERO ISZERO PUSH1 0xD6 JUMPI INVALID JUMPDEST MOD SWAP1 POP SWAP3 SWAP6 POP SWAP3 SWAP6 SWAP1 SWAP4 POP JUMP STOP LOG1 PUSH6 0x627A7A723058 KECCAK256 MULMOD SDIV 0xb6 LOG4 CALLER 0xc9 0xe1 DUP8 0xd5 0xf6 PUSH4 0xB6297953 0xe5 SWAP13 0xfc 0xcc 0xf9 PUSH8 0x2F9CE91E54281C2F DUP5 TIMESTAMP SWAP15 STOP 0x29 "
		},
		"gasEstimates": {
			"creation": {
				"codeDepositCost": "54200",
				"executionCost": "105",
				"totalCost": "54305"
			},
			"external": {
				"arithmetic(uint256,uint256)": "510"
			}
		},
		"methodIdentifiers": {
			"arithmetic(uint256,uint256)": "6cbb5ae3"
		}
	},
	"abi": [
		{
			"constant": true,
			"inputs": [
				{
					"name": "_a",
					"type": "uint256"
				},
				{
					"name": "_b",
					"type": "uint256"
				}
			],
			"name": "arithmetic",
			"outputs": [
				{
					"name": "o_sum",
					"type": "uint256"
				},
				{
					"name": "o_sub",
					"type": "uint256"
				},
				{
					"name": "o_mul",
					"type": "uint256"
				},
				{
					"name": "o_div",
					"type": "uint256"
				},
				{
					"name": "o_mod",
					"type": "uint256"
				}
			],
			"payable": false,
			"stateMutability": "view",
			"type": "function"
		}
	]
}